{
  "contractName": "Stakingpool",
  "abi": [
    {
      "inputs": [
        {
          "internalType": "contract MCHToken",
          "name": "_mchtoken",
          "type": "address"
        },
        {
          "internalType": "contract MCFToken",
          "name": "_mcftoken",
          "type": "address"
        }
      ],
      "stateMutability": "nonpayable",
      "type": "constructor"
    },
    {
      "anonymous": false,
      "inputs": [
        {
          "indexed": false,
          "internalType": "address",
          "name": "sender",
          "type": "address"
        },
        {
          "indexed": false,
          "internalType": "uint256",
          "name": "amount",
          "type": "uint256"
        }
      ],
      "name": "NotifyStaked",
      "type": "event"
    },
    {
      "anonymous": false,
      "inputs": [
        {
          "indexed": false,
          "internalType": "address",
          "name": "sender",
          "type": "address"
        },
        {
          "indexed": false,
          "internalType": "uint256",
          "name": "amount",
          "type": "uint256"
        }
      ],
      "name": "NotifyUnStaked",
      "type": "event"
    },
    {
      "anonymous": false,
      "inputs": [
        {
          "indexed": false,
          "internalType": "address",
          "name": "sender",
          "type": "address"
        },
        {
          "indexed": false,
          "internalType": "uint256",
          "name": "Balance",
          "type": "uint256"
        }
      ],
      "name": "Notifyclaimed",
      "type": "event"
    },
    {
      "anonymous": false,
      "inputs": [
        {
          "indexed": false,
          "internalType": "address",
          "name": "account",
          "type": "address"
        }
      ],
      "name": "Paused",
      "type": "event"
    },
    {
      "anonymous": false,
      "inputs": [
        {
          "indexed": false,
          "internalType": "address",
          "name": "account",
          "type": "address"
        }
      ],
      "name": "Unpaused",
      "type": "event"
    },
    {
      "inputs": [
        {
          "internalType": "address",
          "name": "",
          "type": "address"
        }
      ],
      "name": "DROI",
      "outputs": [
        {
          "internalType": "uint256",
          "name": "",
          "type": "uint256"
        }
      ],
      "stateMutability": "view",
      "type": "function",
      "constant": true
    },
    {
      "inputs": [
        {
          "internalType": "address",
          "name": "",
          "type": "address"
        }
      ],
      "name": "MROI",
      "outputs": [
        {
          "internalType": "uint256",
          "name": "",
          "type": "uint256"
        }
      ],
      "stateMutability": "view",
      "type": "function",
      "constant": true
    },
    {
      "inputs": [
        {
          "internalType": "address",
          "name": "",
          "type": "address"
        }
      ],
      "name": "ROI",
      "outputs": [
        {
          "internalType": "uint256",
          "name": "",
          "type": "uint256"
        }
      ],
      "stateMutability": "view",
      "type": "function",
      "constant": true
    },
    {
      "inputs": [],
      "name": "StakePeriod",
      "outputs": [
        {
          "internalType": "uint256",
          "name": "",
          "type": "uint256"
        }
      ],
      "stateMutability": "view",
      "type": "function",
      "constant": true
    },
    {
      "inputs": [
        {
          "internalType": "address",
          "name": "",
          "type": "address"
        }
      ],
      "name": "claimable",
      "outputs": [
        {
          "internalType": "uint256",
          "name": "",
          "type": "uint256"
        }
      ],
      "stateMutability": "view",
      "type": "function",
      "constant": true
    },
    {
      "inputs": [
        {
          "internalType": "address",
          "name": "",
          "type": "address"
        }
      ],
      "name": "currentstakeyields",
      "outputs": [
        {
          "internalType": "uint256",
          "name": "",
          "type": "uint256"
        }
      ],
      "stateMutability": "view",
      "type": "function",
      "constant": true
    },
    {
      "inputs": [],
      "name": "mcftoken",
      "outputs": [
        {
          "internalType": "contract MCFToken",
          "name": "",
          "type": "address"
        }
      ],
      "stateMutability": "view",
      "type": "function",
      "constant": true
    },
    {
      "inputs": [],
      "name": "mchtoken",
      "outputs": [
        {
          "internalType": "contract MCHToken",
          "name": "",
          "type": "address"
        }
      ],
      "stateMutability": "view",
      "type": "function",
      "constant": true
    },
    {
      "inputs": [],
      "name": "paused",
      "outputs": [
        {
          "internalType": "bool",
          "name": "",
          "type": "bool"
        }
      ],
      "stateMutability": "view",
      "type": "function",
      "constant": true
    },
    {
      "inputs": [
        {
          "internalType": "address",
          "name": "",
          "type": "address"
        }
      ],
      "name": "stakedBalances",
      "outputs": [
        {
          "internalType": "uint256",
          "name": "",
          "type": "uint256"
        }
      ],
      "stateMutability": "view",
      "type": "function",
      "constant": true
    },
    {
      "inputs": [
        {
          "internalType": "address",
          "name": "",
          "type": "address"
        }
      ],
      "name": "stakedShares",
      "outputs": [
        {
          "internalType": "uint256",
          "name": "",
          "type": "uint256"
        }
      ],
      "stateMutability": "view",
      "type": "function",
      "constant": true
    },
    {
      "inputs": [],
      "name": "totalStakedMcH",
      "outputs": [
        {
          "internalType": "uint256",
          "name": "",
          "type": "uint256"
        }
      ],
      "stateMutability": "view",
      "type": "function",
      "constant": true
    },
    {
      "inputs": [],
      "name": "totalStakedamount",
      "outputs": [
        {
          "internalType": "uint256",
          "name": "",
          "type": "uint256"
        }
      ],
      "stateMutability": "view",
      "type": "function",
      "constant": true
    },
    {
      "inputs": [
        {
          "internalType": "uint256",
          "name": "",
          "type": "uint256"
        }
      ],
      "name": "users",
      "outputs": [
        {
          "internalType": "address",
          "name": "",
          "type": "address"
        }
      ],
      "stateMutability": "view",
      "type": "function",
      "constant": true
    },
    {
      "inputs": [
        {
          "internalType": "address",
          "name": "",
          "type": "address"
        }
      ],
      "name": "vested",
      "outputs": [
        {
          "internalType": "uint256",
          "name": "",
          "type": "uint256"
        }
      ],
      "stateMutability": "view",
      "type": "function",
      "constant": true
    },
    {
      "inputs": [
        {
          "internalType": "uint256",
          "name": "amount",
          "type": "uint256"
        }
      ],
      "name": "Approvestake",
      "outputs": [],
      "stateMutability": "nonpayable",
      "type": "function"
    },
    {
      "inputs": [],
      "name": "unstake",
      "outputs": [],
      "stateMutability": "nonpayable",
      "type": "function"
    },
    {
      "inputs": [],
      "name": "distributeRewards",
      "outputs": [],
      "stateMutability": "nonpayable",
      "type": "function"
    },
    {
      "inputs": [],
      "name": "Harvest",
      "outputs": [],
      "stateMutability": "nonpayable",
      "type": "function"
    },
    {
      "inputs": [],
      "name": "calcROI",
      "outputs": [],
      "stateMutability": "nonpayable",
      "type": "function"
    }
  ],
  "bytecode": "0x6080604052600160045560026005553480156200001b57600080fd5b5060405162001ebd38038062001ebd83398181016040528101906200004191906200016b565b60008060006101000a81548160ff02191690831515021790555033600060016101000a81548173ffffffffffffffffffffffffffffffffffffffff021916908373ffffffffffffffffffffffffffffffffffffffff16021790555081600160006101000a81548173ffffffffffffffffffffffffffffffffffffffff021916908373ffffffffffffffffffffffffffffffffffffffff16021790555080600260006101000a81548173ffffffffffffffffffffffffffffffffffffffff021916908373ffffffffffffffffffffffffffffffffffffffff1602179055506213c680426200012f9190620001ac565b6003819055505050620002d2565b6000815190506200014e816200029e565b92915050565b6000815190506200016581620002b8565b92915050565b600080604083850312156200017f57600080fd5b60006200018f8582860162000154565b9250506020620001a2858286016200013d565b9150509250929050565b6000620001b98262000265565b9150620001c68362000265565b9250827fffffffffffffffffffffffffffffffffffffffffffffffffffffffffffffffff03821115620001fe57620001fd6200026f565b5b828201905092915050565b6000620002168262000245565b9050919050565b60006200022a8262000209565b9050919050565b60006200023e8262000209565b9050919050565b600073ffffffffffffffffffffffffffffffffffffffff82169050919050565b6000819050919050565b7f4e487b7100000000000000000000000000000000000000000000000000000000600052601160045260246000fd5b620002a9816200021d565b8114620002b557600080fd5b50565b620002c38162000231565b8114620002cf57600080fd5b50565b611bdb80620002e26000396000f3fe608060405234801561001057600080fd5b506004361061012c5760003560e01c80635c975abb116100ad57806380ededfa1161007157806380ededfa1461031f578063a2c2dbf01461033d578063cc862ef51461035b578063ce4483f914610379578063e893a8a1146103a95761012c565b80635c975abb1461027957806367719223146102975780636f4a2cd0146102c75780637102b728146102d1578063789982c0146103015761012c565b80632def6620116100f45780632def6620146101e7578063365b98b2146101f15780633d64e17a14610221578063402914f51461022b57806352a342a41461025b5761012c565b8063091b63c1146101315780630eb0c8f31461014d57806313677f941461017d5780631460fa87146101ad57806319d7c76e146101dd575b600080fd5b61014b600480360381019061014691906115f2565b6103d9565b005b610167600480360381019061016291906115a0565b610601565b6040516101749190611867565b60405180910390f35b610197600480360381019061019291906115a0565b610619565b6040516101a49190611867565b60405180910390f35b6101c760048036038101906101c291906115a0565b610631565b6040516101d49190611867565b60405180910390f35b6101e5610649565b005b6101ef6108b1565b005b61020b600480360381019061020691906115f2565b610af1565b604051610218919061171b565b60405180910390f35b610229610b30565b005b610245600480360381019061024091906115a0565b610ce8565b6040516102529190611867565b60405180910390f35b610263610d00565b6040516102709190611867565b60405180910390f35b610281610d06565b60405161028e9190611796565b60405180910390f35b6102b160048036038101906102ac91906115a0565b610d1c565b6040516102be9190611867565b60405180910390f35b6102cf610d34565b005b6102eb60048036038101906102e691906115a0565b611196565b6040516102f89190611867565b60405180910390f35b6103096111ae565b6040516103169190611867565b60405180910390f35b6103276111b4565b6040516103349190611867565b60405180910390f35b6103456111ba565b60405161035291906117b1565b60405180910390f35b6103636111e0565b60405161037091906117cc565b60405180910390f35b610393600480360381019061038e91906115a0565b611206565b6040516103a09190611867565b60405180910390f35b6103c360048036038101906103be91906115a0565b61121e565b6040516103d09190611867565b60405180910390f35b60035442106103e757600080fd5b600081116103f457600080fd5b600160009054906101000a900473ffffffffffffffffffffffffffffffffffffffff1673ffffffffffffffffffffffffffffffffffffffff166323b872dd3330846040518463ffffffff1660e01b815260040161045393929190611736565b602060405180830381600087803b15801561046d57600080fd5b505af1158015610481573d6000803e3d6000fd5b505050506040513d601f19601f820116820180604052508101906104a591906115c9565b506000600760003373ffffffffffffffffffffffffffffffffffffffff1673ffffffffffffffffffffffffffffffffffffffff1681526020019081526020016000205414156104f8576104f733611236565b5b61054a81600760003373ffffffffffffffffffffffffffffffffffffffff1673ffffffffffffffffffffffffffffffffffffffff1681526020019081526020016000205461130690919063ffffffff16565b600760003373ffffffffffffffffffffffffffffffffffffffff1673ffffffffffffffffffffffffffffffffffffffff168152602001908152602001600020819055506105a28160095461130690919063ffffffff16565b6009819055506105bf60045460095461131c90919063ffffffff16565b600a819055507fc56736dcf0d4f5e82a639a9147b6843027755e445f6c6379e64fafaf677fc95f33826040516105f692919061176d565b60405180910390a150565b60086020528060005260406000206000915090505481565b600d6020528060005260406000206000915090505481565b60076020528060005260406000206000915090505481565b60005b6010805490508110156108ae57600060108281548110610695577f4e487b7100000000000000000000000000000000000000000000000000000000600052603260045260246000fd5b9060005260206000200160009054906101000a900473ffffffffffffffffffffffffffffffffffffffff169050610729606461071b600954600660008673ffffffffffffffffffffffffffffffffffffffff1673ffffffffffffffffffffffffffffffffffffffff1681526020019081526020016000205461133290919063ffffffff16565b61131c90919063ffffffff16565b600d60008373ffffffffffffffffffffffffffffffffffffffff1673ffffffffffffffffffffffffffffffffffffffff168152602001908152602001600020819055506107bf600c600d60008473ffffffffffffffffffffffffffffffffffffffff1673ffffffffffffffffffffffffffffffffffffffff1681526020019081526020016000205461133290919063ffffffff16565b600c60008373ffffffffffffffffffffffffffffffffffffffff1673ffffffffffffffffffffffffffffffffffffffff1681526020019081526020016000208190555061085661016d600d60008473ffffffffffffffffffffffffffffffffffffffff1673ffffffffffffffffffffffffffffffffffffffff1681526020019081526020016000205461133290919063ffffffff16565b600b60008373ffffffffffffffffffffffffffffffffffffffff1673ffffffffffffffffffffffffffffffffffffffff16815260200190815260200160002081905550506001816108a79190611893565b905061064c565b50565b6000600760003373ffffffffffffffffffffffffffffffffffffffff1673ffffffffffffffffffffffffffffffffffffffff16815260200190815260200160002054905060008111610938576040517f08c379a000000000000000000000000000000000000000000000000000000000815260040161092f90611847565b60405180910390fd5b600160009054906101000a900473ffffffffffffffffffffffffffffffffffffffff1673ffffffffffffffffffffffffffffffffffffffff1663a9059cbb33836040518363ffffffff1660e01b815260040161099592919061176d565b602060405180830381600087803b1580156109af57600080fd5b505af11580156109c3573d6000803e3d6000fd5b505050506040513d601f19601f820116820180604052508101906109e791906115c9565b50610a3a81600760003373ffffffffffffffffffffffffffffffffffffffff1673ffffffffffffffffffffffffffffffffffffffff1681526020019081526020016000205461134890919063ffffffff16565b600760003373ffffffffffffffffffffffffffffffffffffffff1673ffffffffffffffffffffffffffffffffffffffff16815260200190815260200160002081905550610a928160095461134890919063ffffffff16565b600981905550610aaf60045460095461131c90919063ffffffff16565b600a819055507ff0e91367580c56e4492696972a791ee0ea6c1b7cd991e98fb05acd88c438554f3382604051610ae692919061176d565b60405180910390a150565b60108181548110610b0157600080fd5b906000526020600020016000915054906101000a900473ffffffffffffffffffffffffffffffffffffffff1681565b6000600e60003373ffffffffffffffffffffffffffffffffffffffff1673ffffffffffffffffffffffffffffffffffffffff16815260200190815260200160002054905060008111610bb7576040517f08c379a0000000000000000000000000000000000000000000000000000000008152600401610bae90611807565b60405180910390fd5b600260009054906101000a900473ffffffffffffffffffffffffffffffffffffffff1673ffffffffffffffffffffffffffffffffffffffff1663a9059cbb33836040518363ffffffff1660e01b8152600401610c1492919061176d565b602060405180830381600087803b158015610c2e57600080fd5b505af1158015610c42573d6000803e3d6000fd5b505050506040513d601f19601f82011682018060405250810190610c6691906115c9565b506000600e60003373ffffffffffffffffffffffffffffffffffffffff1673ffffffffffffffffffffffffffffffffffffffff168152602001908152602001600020819055507fa3c231ff0a3f5311deb1bc60b33827c06f9c4f088c392e494bd71545f5e746643382604051610cdd92919061176d565b60405180910390a150565b600e6020528060005260406000206000915090505481565b600a5481565b60008060009054906101000a900460ff16905090565b60066020528060005260406000206000915090505481565b600060019054906101000a900473ffffffffffffffffffffffffffffffffffffffff1673ffffffffffffffffffffffffffffffffffffffff163373ffffffffffffffffffffffffffffffffffffffff1614610dc4576040517f08c379a0000000000000000000000000000000000000000000000000000000008152600401610dbb906117e7565b60405180910390fd5b600354421015610e09576040517f08c379a0000000000000000000000000000000000000000000000000000000008152600401610e0090611827565b60405180910390fd5b60005b60108054905081101561119357600060108281548110610e55577f4e487b7100000000000000000000000000000000000000000000000000000000600052603260045260246000fd5b9060005260206000200160009054906101000a900473ffffffffffffffffffffffffffffffffffffffff1690506000610e8d8261135e565b9050610ee181600660008573ffffffffffffffffffffffffffffffffffffffff1673ffffffffffffffffffffffffffffffffffffffff1681526020019081526020016000205461130690919063ffffffff16565b600660008473ffffffffffffffffffffffffffffffffffffffff1673ffffffffffffffffffffffffffffffffffffffff16815260200190815260200160002081905550610f776002600660008573ffffffffffffffffffffffffffffffffffffffff1673ffffffffffffffffffffffffffffffffffffffff1681526020019081526020016000205461133290919063ffffffff16565b600f60008473ffffffffffffffffffffffffffffffffffffffff1673ffffffffffffffffffffffffffffffffffffffff1681526020019081526020016000208190555061104b600f60008473ffffffffffffffffffffffffffffffffffffffff1673ffffffffffffffffffffffffffffffffffffffff16815260200190815260200160002054600660008573ffffffffffffffffffffffffffffffffffffffff1673ffffffffffffffffffffffffffffffffffffffff1681526020019081526020016000205461134890919063ffffffff16565b600e60008473ffffffffffffffffffffffffffffffffffffffff1673ffffffffffffffffffffffffffffffffffffffff16815260200190815260200160002081905550600260009054906101000a900473ffffffffffffffffffffffffffffffffffffffff1673ffffffffffffffffffffffffffffffffffffffff1663a9059cbb83600e60008673ffffffffffffffffffffffffffffffffffffffff1673ffffffffffffffffffffffffffffffffffffffff168152602001908152602001600020546040518363ffffffff1660e01b815260040161112a92919061176d565b602060405180830381600087803b15801561114457600080fd5b505af1158015611158573d6000803e3d6000fd5b505050506040513d601f19601f8201168201806040525081019061117c91906115c9565b50505060018161118c9190611893565b9050610e0c565b50565b600f6020528060005260406000206000915090505481565b60095481565b60035481565b600260009054906101000a900473ffffffffffffffffffffffffffffffffffffffff1681565b600160009054906101000a900473ffffffffffffffffffffffffffffffffffffffff1681565b600c6020528060005260406000206000915090505481565b600b6020528060005260406000206000915090505481565b600060019054906101000a900473ffffffffffffffffffffffffffffffffffffffff1673ffffffffffffffffffffffffffffffffffffffff168173ffffffffffffffffffffffffffffffffffffffff16141561129157611303565b61129a81611476565b611302576010819080600181540180825580915050600190039060005260206000200160009091909190916101000a81548173ffffffffffffffffffffffffffffffffffffffff021916908373ffffffffffffffffffffffffffffffffffffffff1602179055505b5b50565b600081836113149190611893565b905092915050565b6000818361132a919061191a565b905092915050565b6000818361134091906118e9565b905092915050565b600081836113569190611974565b905092915050565b600080600260009054906101000a900473ffffffffffffffffffffffffffffffffffffffff1673ffffffffffffffffffffffffffffffffffffffff166318160ddd6040518163ffffffff1660e01b815260040160206040518083038186803b1580156113c957600080fd5b505afa1580156113dd573d6000803e3d6000fd5b505050506040513d601f19601f82011682018060405250810190611401919061161b565b9050600061146a606461145c84600860008973ffffffffffffffffffffffffffffffffffffffff1673ffffffffffffffffffffffffffffffffffffffff1681526020019081526020016000205461131c90919063ffffffff16565b61133290919063ffffffff16565b90508092505050919050565b600080600090505b60108054905081101561154157601081815481106114c5577f4e487b7100000000000000000000000000000000000000000000000000000000600052603260045260246000fd5b9060005260206000200160009054906101000a900473ffffffffffffffffffffffffffffffffffffffff1673ffffffffffffffffffffffffffffffffffffffff168373ffffffffffffffffffffffffffffffffffffffff16141561152d576001915050611547565b60018161153a9190611893565b905061147e565b50600090505b919050565b60008135905061155b81611b60565b92915050565b60008151905061157081611b77565b92915050565b60008135905061158581611b8e565b92915050565b60008151905061159a81611b8e565b92915050565b6000602082840312156115b257600080fd5b60006115c08482850161154c565b91505092915050565b6000602082840312156115db57600080fd5b60006115e984828501611561565b91505092915050565b60006020828403121561160457600080fd5b600061161284828501611576565b91505092915050565b60006020828403121561162d57600080fd5b600061163b8482850161158b565b91505092915050565b61164d816119a8565b82525050565b61165c816119ba565b82525050565b61166b816119f0565b82525050565b61167a81611a14565b82525050565b600061168d602283611882565b915061169882611a96565b604082019050919050565b60006116b0601383611882565b91506116bb82611ae5565b602082019050919050565b60006116d3601983611882565b91506116de82611b0e565b602082019050919050565b60006116f6601d83611882565b915061170182611b37565b602082019050919050565b611715816119e6565b82525050565b60006020820190506117306000830184611644565b92915050565b600060608201905061174b6000830186611644565b6117586020830185611644565b611765604083018461170c565b949350505050565b60006040820190506117826000830185611644565b61178f602083018461170c565b9392505050565b60006020820190506117ab6000830184611653565b92915050565b60006020820190506117c66000830184611662565b92915050565b60006020820190506117e16000830184611671565b92915050565b6000602082019050818103600083015261180081611680565b9050919050565b60006020820190508181036000830152611820816116a3565b9050919050565b60006020820190508181036000830152611840816116c6565b9050919050565b60006020820190508181036000830152611860816116e9565b9050919050565b600060208201905061187c600083018461170c565b92915050565b600082825260208201905092915050565b600061189e826119e6565b91506118a9836119e6565b9250827fffffffffffffffffffffffffffffffffffffffffffffffffffffffffffffffff038211156118de576118dd611a38565b5b828201905092915050565b60006118f4826119e6565b91506118ff836119e6565b92508261190f5761190e611a67565b5b828204905092915050565b6000611925826119e6565b9150611930836119e6565b9250817fffffffffffffffffffffffffffffffffffffffffffffffffffffffffffffffff048311821515161561196957611968611a38565b5b828202905092915050565b600061197f826119e6565b915061198a836119e6565b92508282101561199d5761199c611a38565b5b828203905092915050565b60006119b3826119c6565b9050919050565b60008115159050919050565b600073ffffffffffffffffffffffffffffffffffffffff82169050919050565b6000819050919050565b60006119fb82611a02565b9050919050565b6000611a0d826119c6565b9050919050565b6000611a1f82611a26565b9050919050565b6000611a31826119c6565b9050919050565b7f4e487b7100000000000000000000000000000000000000000000000000000000600052601160045260246000fd5b7f4e487b7100000000000000000000000000000000000000000000000000000000600052601260045260246000fd5b7f4f6e6c79206f776e65722063616e2063616c6c20746869732066756e6374696f60008201527f6e2e000000000000000000000000000000000000000000000000000000000000602082015250565b7f62616c616e63652063616e6e6f74206265203000000000000000000000000000600082015250565b7f5374616b65506572696f64206e6f7420636f6d706c6574656400000000000000600082015250565b7f756e7374616b696e672062616c616e63652063616e6e6f742062652030000000600082015250565b611b69816119a8565b8114611b7457600080fd5b50565b611b80816119ba565b8114611b8b57600080fd5b50565b611b97816119e6565b8114611ba257600080fd5b5056fea2646970667358221220e752f4530def97e55d8e4d58dd56d63e9b73f74dc11310dfe97b6fc10b04b81864736f6c63430008030033",
  "immutableReferences": {},
  "source": "pragma solidity ^0.8.0;\n\nimport \"@openzeppelin/contracts/utils/math/SafeMath.sol\";\nimport \"@openzeppelin/contracts/security/Pausable.sol\";\nimport \"@openzeppelin/contracts/token/ERC20/ERC20.sol\";\nimport {MCHToken} from \"./MCHToken.sol\";\nimport {MCFToken} from\"./MCFToken.sol\";\n\n\n\n/* @title Staking Pool Contract\n * Open Zeppelin Pausable is Ownable.  contains address owner */\n\ncontract Stakingpool is Pausable {\n  \n  using SafeMath for uint;\n  address private owner;\n  \n  \n  MCHToken public mchtoken;\n  MCFToken public mcftoken;\n  uint public StakePeriod;\n  \n  uint private MCHValue = 1;\n  uint private MCFValue = 2;\n  \n  modifier onlyOwner {\n        require(\n            msg.sender == owner,\n            \"Only owner can call this function.\"\n        );\n        _;\n    }\n  \n /** @dev track total current stake yields of a user */\n   mapping(address => uint) public currentstakeyields;\n   \n   /** @dev track Stakedbalances of user*/\n  mapping(address => uint) public stakedBalances;\n  \n  /** @dev track StakedShares of user */\n  mapping(address => uint) public stakedShares;\n  \n  /** @dev track total staked amount of tokens of all users */\n  uint public totalStakedMcH;\n  \n  /** @dev track total staked value of all users */\n  uint public totalStakedamount;\n  \n /** @dev track Daily Rate of Investment */\n mapping(address => uint) public DROI;\n  \n /** @dev track Monthly Rate of Investment */\n  mapping(address => uint) public MROI;\n  \n /** @dev track Annual Rate of Investment */ \n  mapping(address => uint) public ROI;\n  \n  /** @dev track claimable tokens */ \n  mapping(address => uint) public claimable;\n  \n  /** @dev track vested tokens */  \n  mapping(address => uint) public vested;\n  \n  /** @dev track user request to enter stakingPeriod */\n // mapping(address => uint) public ApproveStake;\n  \n /** @dev track users\n    * users must be tracked in this array because mapping is not iterable */\n  address[] public users;\n  \n   /** @dev track index by address added to users */\n  mapping(address => uint) private userIndex;\n\n  uint NoUsers;\n  \n \n /** @dev trigger notification of staked amount\n    * @param sender       msg.sender for the transaction\n    * @param amount       msg.value for the transaction\n    */\n  event NotifyStaked(address sender, uint amount);\n  \n  /** @dev trigger notification of unstaked amount\n    * @param sender       msg.sender for the transaction\n    * @param amount       msg.value for the transaction\n    */\n  event NotifyUnStaked(address sender, uint amount);\n\n\n  // @dev trigger notification of claimed amount\n  event Notifyclaimed(address sender,uint Balance);\n\n\n  // @dev contract constructor\n    \n constructor(MCHToken _mchtoken, MCFToken _mcftoken)  {\n    \n    owner = msg.sender;\n    mchtoken = _mchtoken;\n    mcftoken = _mcftoken;\n    StakePeriod = block.timestamp + 15 days;\n    \n  }\n\n  \n  /************************ USER MANAGEMENT **********************************/\n\n  /** @dev test if user is in current user list\n    * @param _user address of user to test if in list\n    * @return true if user is on record, otherwise false\n    */\n  function isExistingUser(address _user) internal view returns (bool) {\n    \n      for(uint256 i=0;i<users.length;i+=1) {\n          if(_user ==users[i]) return(true);\n      }\n      \n    return (false);\n  }\n  /** @dev remove a user from users array\n    * @param _user address of user to remove from the list\n    */\n  function removeUser(address _user) internal {\n    if (_user == owner ) return;\n    uint index = userIndex[_user];\n    // user is not last user\n    if (index < users.length.sub(1)) {\n      address lastUser = users[users.length.sub(1)];\n      users[index] = lastUser;\n      userIndex[lastUser] = index;\n    }\n    // this line removes last user\n    users.length.sub(1);\n  }\n\n  /** @dev add a user to users array\n    * @param _user address of user to add to the list\n    */\n   function addUser(address _user) internal {\n    if (_user == owner ) return;\n    if (!isExistingUser(_user)) users.push(_user);\n   }\n  /************************ USER MANAGEMENT **********************************/\n\n  \n   \n  /** @dev stake funds to stakeContract\n    */\n  function Approvestake(uint amount) external {\n      require(block.timestamp < StakePeriod );\n      require(amount > 0);\n      \n     // Transfer Mock  tokens to this contract for staking\n     mchtoken.transferFrom(msg.sender, address(this), amount);\n    \n    if(stakedBalances[msg.sender] == 0) addUser(msg.sender);\n       stakedBalances[msg.sender] = stakedBalances[msg.sender].add(amount);\n       \n    // track total staked\n    totalStakedMcH = totalStakedMcH.add(amount);\n    totalStakedamount =  totalStakedMcH.mul(MCHValue);\n\n    emit NotifyStaked(msg.sender, amount);\n  }\n\n\n  /** @dev unstake funds from Pool\n    */\n  function unstake() external  {\n    \n    // Fetch staking balance\n    uint amount = stakedBalances[msg.sender];\n    \n    require(amount > 0, \"unstaking balance cannot be 0\");\n\n    // Transfer Mocktokens \n    mchtoken.transfer(msg.sender, amount);\n\n    // Reset staking balance\n    stakedBalances[msg.sender] = stakedBalances[msg.sender].sub(amount);\n    \n    // track total staked\n    totalStakedMcH = totalStakedMcH.sub(amount);\n    totalStakedamount =  totalStakedMcH.mul(MCHValue);\n\n    emit NotifyUnStaked(msg.sender, amount);\n  \n   }\n\n  \n  function calcShares(address user) internal returns(uint) {\n     \n     uint shares = (stakedBalances[user].div(totalStakedMcH)).mul(100);\n     stakedShares[user] = stakedShares[user].add(shares);\n     return shares;\n  }\n  \n  function calcRewards(address user) internal view returns (uint) {\n      \n      uint mcftokensEmitted = mcftoken.totalSupply();\n      uint rewards = (stakedShares[user].mul(mcftokensEmitted)).div(100);\n      return rewards;\n  }\n  \n   function distributeRewards() public onlyOwner {\n        \n       require(block.timestamp >= StakePeriod ,\"StakePeriod not completed\");\n       for (uint256 i = 0; i < users.length; i += 1) {\n           address user = users[i];\n           uint256 reward = calcRewards(user);\n           currentstakeyields[user] = currentstakeyields[user].add(reward);\n           vested[user] = currentstakeyields[user].div(2);\n           claimable[user]=currentstakeyields[user].sub(vested[user]);\n           mcftoken.transfer(user,claimable[user]);\n       }\n   }\n\n    function Harvest() public  {\n        \n        uint256 Balance = claimable[msg.sender];\n       // Require amount greater than 0\n        require(Balance > 0, \"balance cannot be 0\");\n        mcftoken.transfer(msg.sender, Balance);\n       // payable(msg.sender).transfer(balance);\n        claimable[msg.sender] = 0;\n\n      emit Notifyclaimed(msg.sender,Balance);\n    \n    }\n  \n  function calcROI() public {\n     \n      for (uint256 i = 0; i < users.length; i += 1) {\n        address user = users[i];\n        ROI[user] =  (currentstakeyields[user].div(totalStakedMcH)).mul(100);\n        MROI[user] = (ROI[user]).div(12);\n        DROI[user] = (ROI[user]).div(365);\n       }\n    }\n\n}",
  "sourcePath": "G:/OMG/stakingpool/stakingpool/contracts/Stakingpool.sol",
  "compiler": {
    "name": "solc",
    "version": "0.8.3+commit.8d00100c.Emscripten.clang"
  },
  "schemaVersion": "3.3.4",
  "updatedAt": "2021-04-14T12:11:25.166Z",
  "networkType": "ethereum",
  "devdoc": {
    "events": {
      "NotifyStaked(address,uint256)": {
        "details": "trigger notification of staked amount",
        "params": {
          "amount": "msg.value for the transaction",
          "sender": "msg.sender for the transaction"
        }
      },
      "NotifyUnStaked(address,uint256)": {
        "details": "trigger notification of unstaked amount",
        "params": {
          "amount": "msg.value for the transaction",
          "sender": "msg.sender for the transaction"
        }
      }
    },
    "kind": "dev",
    "methods": {
      "Approvestake(uint256)": {
        "details": "stake funds to stakeContract"
      },
      "paused()": {
        "details": "Returns true if the contract is paused, and false otherwise."
      },
      "unstake()": {
        "details": "unstake funds from Pool"
      }
    },
    "stateVariables": {
      "DROI": {
        "details": "track Daily Rate of Investment "
      },
      "MROI": {
        "details": "track Monthly Rate of Investment "
      },
      "ROI": {
        "details": "track Annual Rate of Investment "
      },
      "claimable": {
        "details": "track claimable tokens "
      },
      "currentstakeyields": {
        "details": "track total current stake yields of a user "
      },
      "stakedBalances": {
        "details": "track Stakedbalances of user"
      },
      "stakedShares": {
        "details": "track StakedShares of user "
      },
      "totalStakedMcH": {
        "details": "track total staked amount of tokens of all users "
      },
      "totalStakedamount": {
        "details": "track total staked value of all users "
      },
      "userIndex": {
        "details": "track index by address added to users "
      },
      "users": {
        "details": "track users users must be tracked in this array because mapping is not iterable "
      },
      "vested": {
        "details": "track vested tokens "
      }
    },
    "version": 1
  },
  "userdoc": {
    "kind": "user",
    "methods": {},
    "version": 1
  }
}