{
  "contractName": "Stakingpool",
  "abi": [
    {
      "inputs": [
        {
          "internalType": "contract MCHToken",
          "name": "_mchtoken",
          "type": "address"
        },
        {
          "internalType": "contract MCFToken",
          "name": "_mcftoken",
          "type": "address"
        }
      ],
      "stateMutability": "nonpayable",
      "type": "constructor"
    },
    {
      "anonymous": false,
      "inputs": [
        {
          "indexed": false,
          "internalType": "address",
          "name": "sender",
          "type": "address"
        },
        {
          "indexed": false,
          "internalType": "uint256",
          "name": "amount",
          "type": "uint256"
        }
      ],
      "name": "NotifyStaked",
      "type": "event"
    },
    {
      "anonymous": false,
      "inputs": [
        {
          "indexed": false,
          "internalType": "address",
          "name": "sender",
          "type": "address"
        },
        {
          "indexed": false,
          "internalType": "uint256",
          "name": "amount",
          "type": "uint256"
        }
      ],
      "name": "NotifyUnStaked",
      "type": "event"
    },
    {
      "anonymous": false,
      "inputs": [
        {
          "indexed": false,
          "internalType": "address",
          "name": "sender",
          "type": "address"
        },
        {
          "indexed": false,
          "internalType": "uint256",
          "name": "Balance",
          "type": "uint256"
        }
      ],
      "name": "Notifyclaimed",
      "type": "event"
    },
    {
      "anonymous": false,
      "inputs": [
        {
          "indexed": false,
          "internalType": "address",
          "name": "account",
          "type": "address"
        }
      ],
      "name": "Paused",
      "type": "event"
    },
    {
      "anonymous": false,
      "inputs": [
        {
          "indexed": false,
          "internalType": "address",
          "name": "account",
          "type": "address"
        }
      ],
      "name": "Unpaused",
      "type": "event"
    },
    {
      "inputs": [
        {
          "internalType": "address",
          "name": "",
          "type": "address"
        }
      ],
      "name": "DROI",
      "outputs": [
        {
          "internalType": "uint256",
          "name": "",
          "type": "uint256"
        }
      ],
      "stateMutability": "view",
      "type": "function",
      "constant": true
    },
    {
      "inputs": [
        {
          "internalType": "address",
          "name": "",
          "type": "address"
        }
      ],
      "name": "MROI",
      "outputs": [
        {
          "internalType": "uint256",
          "name": "",
          "type": "uint256"
        }
      ],
      "stateMutability": "view",
      "type": "function",
      "constant": true
    },
    {
      "inputs": [
        {
          "internalType": "address",
          "name": "",
          "type": "address"
        }
      ],
      "name": "ROI",
      "outputs": [
        {
          "internalType": "uint256",
          "name": "",
          "type": "uint256"
        }
      ],
      "stateMutability": "view",
      "type": "function",
      "constant": true
    },
    {
      "inputs": [],
      "name": "StakePeriod",
      "outputs": [
        {
          "internalType": "uint256",
          "name": "",
          "type": "uint256"
        }
      ],
      "stateMutability": "view",
      "type": "function",
      "constant": true
    },
    {
      "inputs": [
        {
          "internalType": "address",
          "name": "",
          "type": "address"
        }
      ],
      "name": "claimable",
      "outputs": [
        {
          "internalType": "uint256",
          "name": "",
          "type": "uint256"
        }
      ],
      "stateMutability": "view",
      "type": "function",
      "constant": true
    },
    {
      "inputs": [
        {
          "internalType": "address",
          "name": "",
          "type": "address"
        }
      ],
      "name": "currentstakeyields",
      "outputs": [
        {
          "internalType": "uint256",
          "name": "",
          "type": "uint256"
        }
      ],
      "stateMutability": "view",
      "type": "function",
      "constant": true
    },
    {
      "inputs": [],
      "name": "mcftoken",
      "outputs": [
        {
          "internalType": "contract MCFToken",
          "name": "",
          "type": "address"
        }
      ],
      "stateMutability": "view",
      "type": "function",
      "constant": true
    },
    {
      "inputs": [],
      "name": "mchtoken",
      "outputs": [
        {
          "internalType": "contract MCHToken",
          "name": "",
          "type": "address"
        }
      ],
      "stateMutability": "view",
      "type": "function",
      "constant": true
    },
    {
      "inputs": [],
      "name": "paused",
      "outputs": [
        {
          "internalType": "bool",
          "name": "",
          "type": "bool"
        }
      ],
      "stateMutability": "view",
      "type": "function",
      "constant": true
    },
    {
      "inputs": [
        {
          "internalType": "address",
          "name": "",
          "type": "address"
        }
      ],
      "name": "stakedBalances",
      "outputs": [
        {
          "internalType": "uint256",
          "name": "",
          "type": "uint256"
        }
      ],
      "stateMutability": "view",
      "type": "function",
      "constant": true
    },
    {
      "inputs": [
        {
          "internalType": "address",
          "name": "",
          "type": "address"
        }
      ],
      "name": "stakedShares",
      "outputs": [
        {
          "internalType": "uint256",
          "name": "",
          "type": "uint256"
        }
      ],
      "stateMutability": "view",
      "type": "function",
      "constant": true
    },
    {
      "inputs": [],
      "name": "totalStakedMcH",
      "outputs": [
        {
          "internalType": "uint256",
          "name": "",
          "type": "uint256"
        }
      ],
      "stateMutability": "view",
      "type": "function",
      "constant": true
    },
    {
      "inputs": [],
      "name": "totalStakedamount",
      "outputs": [
        {
          "internalType": "uint256",
          "name": "",
          "type": "uint256"
        }
      ],
      "stateMutability": "view",
      "type": "function",
      "constant": true
    },
    {
      "inputs": [
        {
          "internalType": "uint256",
          "name": "",
          "type": "uint256"
        }
      ],
      "name": "users",
      "outputs": [
        {
          "internalType": "address",
          "name": "",
          "type": "address"
        }
      ],
      "stateMutability": "view",
      "type": "function",
      "constant": true
    },
    {
      "inputs": [
        {
          "internalType": "address",
          "name": "",
          "type": "address"
        }
      ],
      "name": "vested",
      "outputs": [
        {
          "internalType": "uint256",
          "name": "",
          "type": "uint256"
        }
      ],
      "stateMutability": "view",
      "type": "function",
      "constant": true
    },
    {
      "inputs": [
        {
          "internalType": "uint256",
          "name": "amount",
          "type": "uint256"
        }
      ],
      "name": "Approvestake",
      "outputs": [],
      "stateMutability": "nonpayable",
      "type": "function"
    },
    {
      "inputs": [],
      "name": "unstake",
      "outputs": [],
      "stateMutability": "nonpayable",
      "type": "function"
    },
    {
      "inputs": [],
      "name": "distributeRewards",
      "outputs": [],
      "stateMutability": "nonpayable",
      "type": "function"
    },
    {
      "inputs": [],
      "name": "Harvest",
      "outputs": [],
      "stateMutability": "nonpayable",
      "type": "function"
    },
    {
      "inputs": [],
      "name": "calcROI",
      "outputs": [],
      "stateMutability": "nonpayable",
      "type": "function"
    }
  ],
  "bytecode": "0x6080604052600160045560026005553480156200001b57600080fd5b5060405162001fee38038062001fee83398181016040528101906200004191906200016b565b60008060006101000a81548160ff02191690831515021790555033600060016101000a81548173ffffffffffffffffffffffffffffffffffffffff021916908373ffffffffffffffffffffffffffffffffffffffff16021790555081600160006101000a81548173ffffffffffffffffffffffffffffffffffffffff021916908373ffffffffffffffffffffffffffffffffffffffff16021790555080600260006101000a81548173ffffffffffffffffffffffffffffffffffffffff021916908373ffffffffffffffffffffffffffffffffffffffff1602179055506213c680426200012f9190620001ac565b6003819055505050620002d2565b6000815190506200014e816200029e565b92915050565b6000815190506200016581620002b8565b92915050565b600080604083850312156200017f57600080fd5b60006200018f8582860162000154565b9250506020620001a2858286016200013d565b9150509250929050565b6000620001b98262000265565b9150620001c68362000265565b9250827fffffffffffffffffffffffffffffffffffffffffffffffffffffffffffffffff03821115620001fe57620001fd6200026f565b5b828201905092915050565b6000620002168262000245565b9050919050565b60006200022a8262000209565b9050919050565b60006200023e8262000209565b9050919050565b600073ffffffffffffffffffffffffffffffffffffffff82169050919050565b6000819050919050565b7f4e487b7100000000000000000000000000000000000000000000000000000000600052601160045260246000fd5b620002a9816200021d565b8114620002b557600080fd5b50565b620002c38162000231565b8114620002cf57600080fd5b50565b611d0c80620002e26000396000f3fe608060405234801561001057600080fd5b506004361061012c5760003560e01c80635c975abb116100ad57806380ededfa1161007157806380ededfa1461031f578063a2c2dbf01461033d578063cc862ef51461035b578063ce4483f914610379578063e893a8a1146103a95761012c565b80635c975abb1461027957806367719223146102975780636f4a2cd0146102c75780637102b728146102d1578063789982c0146103015761012c565b80632def6620116100f45780632def6620146101e7578063365b98b2146101f15780633d64e17a14610221578063402914f51461022b57806352a342a41461025b5761012c565b8063091b63c1146101315780630eb0c8f31461014d57806313677f941461017d5780631460fa87146101ad57806319d7c76e146101dd575b600080fd5b61014b6004803603810190610146919061178f565b6103d9565b005b6101676004803603810190610162919061173d565b61069e565b60405161017491906119c1565b60405180910390f35b6101976004803603810190610192919061173d565b6106b6565b6040516101a491906119c1565b60405180910390f35b6101c760048036038101906101c2919061173d565b6106ce565b6040516101d491906119c1565b60405180910390f35b6101e56106e6565b005b6101ef61094e565b005b61020b6004803603810190610206919061178f565b610c2b565b6040516102189190611895565b60405180910390f35b610229610c6a565b005b6102456004803603810190610240919061173d565b610eb7565b60405161025291906119c1565b60405180910390f35b610263610ecf565b60405161027091906119c1565b60405180910390f35b610281610ed5565b60405161028e9190611910565b60405180910390f35b6102b160048036038101906102ac919061173d565b610eeb565b6040516102be91906119c1565b60405180910390f35b6102cf610f03565b005b6102eb60048036038101906102e6919061173d565b611231565b6040516102f891906119c1565b60405180910390f35b610309611249565b60405161031691906119c1565b60405180910390f35b61032761124f565b60405161033491906119c1565b60405180910390f35b610345611255565b604051610352919061192b565b60405180910390f35b61036361127b565b6040516103709190611946565b60405180910390f35b610393600480360381019061038e919061173d565b6112a1565b6040516103a091906119c1565b60405180910390f35b6103c360048036038101906103be919061173d565b6112b9565b6040516103d091906119c1565b60405180910390f35b60035442106103e757600080fd5b600081116103f457600080fd5b600160009054906101000a900473ffffffffffffffffffffffffffffffffffffffff1673ffffffffffffffffffffffffffffffffffffffff166323b872dd3330846040518463ffffffff1660e01b8152600401610453939291906118b0565b602060405180830381600087803b15801561046d57600080fd5b505af1158015610481573d6000803e3d6000fd5b505050506040513d601f19601f820116820180604052508101906104a59190611766565b506000600760003373ffffffffffffffffffffffffffffffffffffffff1673ffffffffffffffffffffffffffffffffffffffff1681526020019081526020016000205414156104f8576104f7336112d1565b5b61054a81600760003373ffffffffffffffffffffffffffffffffffffffff1673ffffffffffffffffffffffffffffffffffffffff168152602001908152602001600020546113a190919063ffffffff16565b600760003373ffffffffffffffffffffffffffffffffffffffff1673ffffffffffffffffffffffffffffffffffffffff168152602001908152602001600020819055506105a2816009546113a190919063ffffffff16565b6009819055506105bf6004546009546113b790919063ffffffff16565b600a8190555061061f6105d1336113cd565b600860003373ffffffffffffffffffffffffffffffffffffffff1673ffffffffffffffffffffffffffffffffffffffff168152602001908152602001600020546113a190919063ffffffff16565b600860003373ffffffffffffffffffffffffffffffffffffffff1673ffffffffffffffffffffffffffffffffffffffff168152602001908152602001600020819055507fc56736dcf0d4f5e82a639a9147b6843027755e445f6c6379e64fafaf677fc95f33826040516106939291906118e7565b60405180910390a150565b60086020528060005260406000206000915090505481565b600d6020528060005260406000206000915090505481565b60076020528060005260406000206000915090505481565b60005b60108054905081101561094b57600060108281548110610732577f4e487b7100000000000000000000000000000000000000000000000000000000600052603260045260246000fd5b9060005260206000200160009054906101000a900473ffffffffffffffffffffffffffffffffffffffff1690506107c660646107b8600954600660008673ffffffffffffffffffffffffffffffffffffffff1673ffffffffffffffffffffffffffffffffffffffff168152602001908152602001600020546114d590919063ffffffff16565b6113b790919063ffffffff16565b600d60008373ffffffffffffffffffffffffffffffffffffffff1673ffffffffffffffffffffffffffffffffffffffff1681526020019081526020016000208190555061085c600c600d60008473ffffffffffffffffffffffffffffffffffffffff1673ffffffffffffffffffffffffffffffffffffffff168152602001908152602001600020546114d590919063ffffffff16565b600c60008373ffffffffffffffffffffffffffffffffffffffff1673ffffffffffffffffffffffffffffffffffffffff168152602001908152602001600020819055506108f361016d600d60008473ffffffffffffffffffffffffffffffffffffffff1673ffffffffffffffffffffffffffffffffffffffff168152602001908152602001600020546114d590919063ffffffff16565b600b60008373ffffffffffffffffffffffffffffffffffffffff1673ffffffffffffffffffffffffffffffffffffffff168152602001908152602001600020819055505060018161094491906119ed565b90506106e9565b50565b6000600760003373ffffffffffffffffffffffffffffffffffffffff1673ffffffffffffffffffffffffffffffffffffffff168152602001908152602001600020549050600081116109d5576040517f08c379a00000000000000000000000000000000000000000000000000000000081526004016109cc906119a1565b60405180910390fd5b600160009054906101000a900473ffffffffffffffffffffffffffffffffffffffff1673ffffffffffffffffffffffffffffffffffffffff1663a9059cbb33836040518363ffffffff1660e01b8152600401610a329291906118e7565b602060405180830381600087803b158015610a4c57600080fd5b505af1158015610a60573d6000803e3d6000fd5b505050506040513d601f19601f82011682018060405250810190610a849190611766565b50610ad781600760003373ffffffffffffffffffffffffffffffffffffffff1673ffffffffffffffffffffffffffffffffffffffff168152602001908152602001600020546114eb90919063ffffffff16565b600760003373ffffffffffffffffffffffffffffffffffffffff1673ffffffffffffffffffffffffffffffffffffffff16815260200190815260200160002081905550610b2f816009546114eb90919063ffffffff16565b600981905550610b4c6004546009546113b790919063ffffffff16565b600a819055507ff0e91367580c56e4492696972a791ee0ea6c1b7cd991e98fb05acd88c438554f3382604051610b839291906118e7565b60405180910390a1610be5610b97336113cd565b600860003373ffffffffffffffffffffffffffffffffffffffff1673ffffffffffffffffffffffffffffffffffffffff168152602001908152602001600020546114eb90919063ffffffff16565b600860003373ffffffffffffffffffffffffffffffffffffffff1673ffffffffffffffffffffffffffffffffffffffff1681526020019081526020016000208190555050565b60108181548110610c3b57600080fd5b906000526020600020016000915054906101000a900473ffffffffffffffffffffffffffffffffffffffff1681565b6000600e60003373ffffffffffffffffffffffffffffffffffffffff1673ffffffffffffffffffffffffffffffffffffffff16815260200190815260200160002054905060008111610cf1576040517f08c379a0000000000000000000000000000000000000000000000000000000008152600401610ce890611981565b60405180910390fd5b600260009054906101000a900473ffffffffffffffffffffffffffffffffffffffff1673ffffffffffffffffffffffffffffffffffffffff1663a9059cbb33836040518363ffffffff1660e01b8152600401610d4e9291906118e7565b602060405180830381600087803b158015610d6857600080fd5b505af1158015610d7c573d6000803e3d6000fd5b505050506040513d601f19601f82011682018060405250810190610da09190611766565b50610df381600660003373ffffffffffffffffffffffffffffffffffffffff1673ffffffffffffffffffffffffffffffffffffffff168152602001908152602001600020546114eb90919063ffffffff16565b600660003373ffffffffffffffffffffffffffffffffffffffff1673ffffffffffffffffffffffffffffffffffffffff168152602001908152602001600020819055506000600e60003373ffffffffffffffffffffffffffffffffffffffff1673ffffffffffffffffffffffffffffffffffffffff168152602001908152602001600020819055507fa3c231ff0a3f5311deb1bc60b33827c06f9c4f088c392e494bd71545f5e746643382604051610eac9291906118e7565b60405180910390a150565b600e6020528060005260406000206000915090505481565b600a5481565b60008060009054906101000a900460ff16905090565b60066020528060005260406000206000915090505481565b600060019054906101000a900473ffffffffffffffffffffffffffffffffffffffff1673ffffffffffffffffffffffffffffffffffffffff163373ffffffffffffffffffffffffffffffffffffffff1614610f93576040517f08c379a0000000000000000000000000000000000000000000000000000000008152600401610f8a90611961565b60405180910390fd5b60005b60108054905081101561122e57600060108281548110610fdf577f4e487b7100000000000000000000000000000000000000000000000000000000600052603260045260246000fd5b9060005260206000200160009054906101000a900473ffffffffffffffffffffffffffffffffffffffff169050600061101782611501565b905061106b81600660008573ffffffffffffffffffffffffffffffffffffffff1673ffffffffffffffffffffffffffffffffffffffff168152602001908152602001600020546113a190919063ffffffff16565b600660008473ffffffffffffffffffffffffffffffffffffffff1673ffffffffffffffffffffffffffffffffffffffff168152602001908152602001600020819055506111016002600660008573ffffffffffffffffffffffffffffffffffffffff1673ffffffffffffffffffffffffffffffffffffffff168152602001908152602001600020546114d590919063ffffffff16565b600f60008473ffffffffffffffffffffffffffffffffffffffff1673ffffffffffffffffffffffffffffffffffffffff168152602001908152602001600020819055506111d5600f60008473ffffffffffffffffffffffffffffffffffffffff1673ffffffffffffffffffffffffffffffffffffffff16815260200190815260200160002054600660008573ffffffffffffffffffffffffffffffffffffffff1673ffffffffffffffffffffffffffffffffffffffff168152602001908152602001600020546114eb90919063ffffffff16565b600e60008473ffffffffffffffffffffffffffffffffffffffff1673ffffffffffffffffffffffffffffffffffffffff16815260200190815260200160002081905550505060018161122791906119ed565b9050610f96565b50565b600f6020528060005260406000206000915090505481565b60095481565b60035481565b600260009054906101000a900473ffffffffffffffffffffffffffffffffffffffff1681565b600160009054906101000a900473ffffffffffffffffffffffffffffffffffffffff1681565b600c6020528060005260406000206000915090505481565b600b6020528060005260406000206000915090505481565b600060019054906101000a900473ffffffffffffffffffffffffffffffffffffffff1673ffffffffffffffffffffffffffffffffffffffff168173ffffffffffffffffffffffffffffffffffffffff16141561132c5761139e565b61133581611613565b61139d576010819080600181540180825580915050600190039060005260206000200160009091909190916101000a81548173ffffffffffffffffffffffffffffffffffffffff021916908373ffffffffffffffffffffffffffffffffffffffff1602179055505b5b50565b600081836113af91906119ed565b905092915050565b600081836113c59190611a74565b905092915050565b6000806114376064611429600954600760008873ffffffffffffffffffffffffffffffffffffffff1673ffffffffffffffffffffffffffffffffffffffff168152602001908152602001600020546114d590919063ffffffff16565b6113b790919063ffffffff16565b905061148b81600860008673ffffffffffffffffffffffffffffffffffffffff1673ffffffffffffffffffffffffffffffffffffffff168152602001908152602001600020546113a190919063ffffffff16565b600860008573ffffffffffffffffffffffffffffffffffffffff1673ffffffffffffffffffffffffffffffffffffffff168152602001908152602001600020819055915050919050565b600081836114e39190611a43565b905092915050565b600081836114f99190611ace565b905092915050565b600080600260009054906101000a900473ffffffffffffffffffffffffffffffffffffffff1673ffffffffffffffffffffffffffffffffffffffff166318160ddd6040518163ffffffff1660e01b815260040160206040518083038186803b15801561156c57600080fd5b505afa158015611580573d6000803e3d6000fd5b505050506040513d601f19601f820116820180604052508101906115a491906117b8565b905061160b60646115fd83600860008873ffffffffffffffffffffffffffffffffffffffff1673ffffffffffffffffffffffffffffffffffffffff168152602001908152602001600020546113b790919063ffffffff16565b6114d590919063ffffffff16565b915050919050565b600080600090505b6010805490508110156116de5760108181548110611662577f4e487b7100000000000000000000000000000000000000000000000000000000600052603260045260246000fd5b9060005260206000200160009054906101000a900473ffffffffffffffffffffffffffffffffffffffff1673ffffffffffffffffffffffffffffffffffffffff168373ffffffffffffffffffffffffffffffffffffffff1614156116ca5760019150506116e4565b6001816116d791906119ed565b905061161b565b50600090505b919050565b6000813590506116f881611c91565b92915050565b60008151905061170d81611ca8565b92915050565b60008135905061172281611cbf565b92915050565b60008151905061173781611cbf565b92915050565b60006020828403121561174f57600080fd5b600061175d848285016116e9565b91505092915050565b60006020828403121561177857600080fd5b6000611786848285016116fe565b91505092915050565b6000602082840312156117a157600080fd5b60006117af84828501611713565b91505092915050565b6000602082840312156117ca57600080fd5b60006117d884828501611728565b91505092915050565b6117ea81611b02565b82525050565b6117f981611b14565b82525050565b61180881611b4a565b82525050565b61181781611b6e565b82525050565b600061182a6022836119dc565b915061183582611bf0565b604082019050919050565b600061184d6013836119dc565b915061185882611c3f565b602082019050919050565b6000611870601d836119dc565b915061187b82611c68565b602082019050919050565b61188f81611b40565b82525050565b60006020820190506118aa60008301846117e1565b92915050565b60006060820190506118c560008301866117e1565b6118d260208301856117e1565b6118df6040830184611886565b949350505050565b60006040820190506118fc60008301856117e1565b6119096020830184611886565b9392505050565b600060208201905061192560008301846117f0565b92915050565b600060208201905061194060008301846117ff565b92915050565b600060208201905061195b600083018461180e565b92915050565b6000602082019050818103600083015261197a8161181d565b9050919050565b6000602082019050818103600083015261199a81611840565b9050919050565b600060208201905081810360008301526119ba81611863565b9050919050565b60006020820190506119d66000830184611886565b92915050565b600082825260208201905092915050565b60006119f882611b40565b9150611a0383611b40565b9250827fffffffffffffffffffffffffffffffffffffffffffffffffffffffffffffffff03821115611a3857611a37611b92565b5b828201905092915050565b6000611a4e82611b40565b9150611a5983611b40565b925082611a6957611a68611bc1565b5b828204905092915050565b6000611a7f82611b40565b9150611a8a83611b40565b9250817fffffffffffffffffffffffffffffffffffffffffffffffffffffffffffffffff0483118215151615611ac357611ac2611b92565b5b828202905092915050565b6000611ad982611b40565b9150611ae483611b40565b925082821015611af757611af6611b92565b5b828203905092915050565b6000611b0d82611b20565b9050919050565b60008115159050919050565b600073ffffffffffffffffffffffffffffffffffffffff82169050919050565b6000819050919050565b6000611b5582611b5c565b9050919050565b6000611b6782611b20565b9050919050565b6000611b7982611b80565b9050919050565b6000611b8b82611b20565b9050919050565b7f4e487b7100000000000000000000000000000000000000000000000000000000600052601160045260246000fd5b7f4e487b7100000000000000000000000000000000000000000000000000000000600052601260045260246000fd5b7f4f6e6c79206f776e65722063616e2063616c6c20746869732066756e6374696f60008201527f6e2e000000000000000000000000000000000000000000000000000000000000602082015250565b7f62616c616e63652063616e6e6f74206265203000000000000000000000000000600082015250565b7f756e7374616b696e672062616c616e63652063616e6e6f742062652030000000600082015250565b611c9a81611b02565b8114611ca557600080fd5b50565b611cb181611b14565b8114611cbc57600080fd5b50565b611cc881611b40565b8114611cd357600080fd5b5056fea2646970667358221220ce825e6dadf8bd9013a378dd07186df4cfc2c0dc85b9efdd8c01de71b6f2ddf664736f6c63430008030033",
  "immutableReferences": {},
  "source": "// SPDX-License-Identifier: GPL-3.0\n\npragma solidity ^0.8.0;\n\nimport \"@openzeppelin/contracts/utils/math/SafeMath.sol\";\nimport \"@openzeppelin/contracts/security/Pausable.sol\";\nimport \"@openzeppelin/contracts/token/ERC20/ERC20.sol\";\nimport {MCHToken} from \"./MCHToken.sol\";\nimport {MCFToken} from\"./MCFToken.sol\";\n\n\n\n/* @title Staking Pool Contract\n * Open Zeppelin Pausable is Ownable.  contains address owner */\n\ncontract Stakingpool is Pausable {\n  \n  using SafeMath for uint;\n  address private owner;\n  \n  \n  MCHToken public mchtoken;\n  MCFToken public mcftoken;\n  uint public StakePeriod;\n  \n  uint private MCHValue = 1;\n  uint private MCFValue = 2;\n  \n  modifier onlyOwner {\n        require(\n            msg.sender == owner,\n            \"Only owner can call this function.\"\n        );\n        _;\n    }\n  \n /** @dev track total current stake yields of a user */\n   mapping(address => uint) public currentstakeyields;\n   \n   /* @dev track Stakedbalances of user */\n\n  mapping(address => uint) public stakedBalances;\n  \n  /** @dev track StakedShares of user */\n  mapping(address => uint) public stakedShares;\n  \n  /** @dev track total staked amount of tokens of all users */\n  uint public totalStakedMcH;\n  \n  /** @dev track total staked value of all users */\n  uint public totalStakedamount;\n  \n /** @dev track Daily Rate of Investment */\n mapping(address => uint) public DROI;\n  \n /** @dev track Monthly Rate of Investment */\n  mapping(address => uint) public MROI;\n  \n /** @dev track Annual Rate of Investment */ \n  mapping(address => uint) public ROI;\n  \n  /** @dev track claimable tokens */ \n  mapping(address => uint) public claimable;\n  \n  /** @dev track vested tokens */  \n  mapping(address => uint) public vested;\n  \n   /** @dev track users\n    * users must be tracked in this array because mapping is not iterable */\n  address[] public users;\n  \n   /** @dev track index by address added to users */\n  mapping(address => uint) private userIndex;\n\n  uint NoUsers;\n  \n \n /** @dev trigger notification of staked amount\n    * @param sender       msg.sender for the transaction\n    * @param amount       msg.value for the transaction\n    */\n  event NotifyStaked(address sender, uint amount);\n  \n  /** @dev trigger notification of unstaked amount\n    * @param sender       msg.sender for the transaction\n    * @param amount       msg.value for the transaction\n    */\n  event NotifyUnStaked(address sender, uint amount);\n\n\n  // @dev trigger notification of claimed amount\n  event Notifyclaimed(address sender,uint Balance);\n\n\n  // @dev contract constructor\n    \n constructor(MCHToken _mchtoken, MCFToken _mcftoken)  {\n    \n    owner = msg.sender;\n    mchtoken = _mchtoken;\n    mcftoken = _mcftoken;\n    StakePeriod = block.timestamp + 15 days;\n    \n  }\n\n  /******** USER MANAGEMENT *********/\n\n  /** @dev test if user is in current user list\n    * @param _user address of user to test if in list\n    * @return true if user is on record, otherwise false\n    */\n  function isExistingUser(address _user) internal view returns (bool) {\n    \n      for(uint256 i=0;i<users.length;i+=1) {\n          if(_user ==users[i]) return(true);\n      }\n      \n    return (false);\n  }\n  /** @dev remove a user from users array\n    * @param _user address of user to remove from the list\n    */\n  function removeUser(address _user) internal {\n    if (_user == owner ) return;\n    uint index = userIndex[_user];\n    // user is not last user\n    if (index < users.length.sub(1)) {\n      address lastUser = users[users.length.sub(1)];\n      users[index] = lastUser;\n      userIndex[lastUser] = index;\n    }\n    // this line removes last user\n    users.length.sub(1);\n  }\n\n  /** @dev add a user to users array\n    * @param _user address of user to add to the list\n    */\n   function addUser(address _user) internal {\n    if (_user == owner ) return;\n    if (!isExistingUser(_user)) users.push(_user);\n   }\n  /******** USER MANAGEMENT *********/\n\n  \n   \n  /** @dev stake funds to stakeContract\n    */\n  function Approvestake(uint amount) external {\n      require(block.timestamp < StakePeriod );\n      require(amount > 0);\n      \n     // Transfer Mock  tokens to this contract for staking\n     mchtoken.transferFrom(msg.sender, address(this), amount);\n    \n    if(stakedBalances[msg.sender] == 0) addUser(msg.sender);\n       stakedBalances[msg.sender] = stakedBalances[msg.sender].add(amount);\n       \n    // track total staked\n    totalStakedMcH = totalStakedMcH.add(amount);\n    totalStakedamount =  totalStakedMcH.mul(MCHValue);\n    stakedShares[msg.sender] = stakedShares[msg.sender].add(calcShares(msg.sender));\n\n    emit NotifyStaked(msg.sender, amount);\n  }\n\n\n  /** @dev unstake funds from Pool\n    */\n  function unstake() external  {\n    \n    // Fetch staking balance\n    uint amount = stakedBalances[msg.sender];\n    \n    require(amount > 0, \"unstaking balance cannot be 0\");\n\n    // Transfer Mocktokens \n    mchtoken.transfer(msg.sender, amount);\n\n    // Reset staking balance\n    stakedBalances[msg.sender] = stakedBalances[msg.sender].sub(amount);\n    \n    // track total staked\n    totalStakedMcH = totalStakedMcH.sub(amount);\n    totalStakedamount =  totalStakedMcH.mul(MCHValue);\n\n    emit NotifyUnStaked(msg.sender, amount);\n    \n    stakedShares[msg.sender] = stakedShares[msg.sender].sub (calcShares(msg.sender));\n  \n   }\n\n  \n   function calcShares(address user) internal returns(uint) {\n     \n     uint shares = (stakedBalances[user].div(totalStakedMcH)).mul(100);\n     return  stakedShares[user] = stakedShares[user].add(shares);\n    \n   }\n   \n   \n    function calcRewards(address user) internal view returns(uint) {\n     \n     uint mcftokensEmitted = mcftoken.totalSupply();\n     return (stakedShares[user].mul(mcftokensEmitted)).div(100);\n   }\n  \n  \n  \n   function distributeRewards() external onlyOwner {\n       \n       for (uint256 i = 0; i < users.length; i += 1) {\n           address user = users[i];\n           uint256 reward = calcRewards(user);\n           currentstakeyields[user] = currentstakeyields[user].add(reward);\n           vested[user] = currentstakeyields[user].div(2);\n           claimable[user]=currentstakeyields[user].sub(vested[user]);\n      }\n   }\n\n    function Harvest() external  {\n        \n        uint256 Balance = claimable[msg.sender];\n       // Require amount greater than 0\n        require(Balance > 0, \"balance cannot be 0\");\n        mcftoken.transfer(msg.sender, Balance);\n       // payable(msg.sender).transfer(balance);\n        currentstakeyields[msg.sender] = currentstakeyields[msg.sender].sub(Balance);\n        claimable[msg.sender] = 0;\n\n       emit Notifyclaimed(msg.sender,Balance);\n    \n    }\n  \n   function calcROI() public {\n     \n      for (uint256 i = 0; i < users.length; i += 1) {\n        address user = users[i];\n        ROI[user] =  (currentstakeyields[user].div(totalStakedMcH)).mul(100);\n        MROI[user] = (ROI[user]).div(12);\n        DROI[user] = (ROI[user]).div(365);\n       \n       }\n    }\n\n}",
  "sourcePath": "G:/LAATEST/stakingpool_1/contracts/Stakingpool.sol",
  "compiler": {
    "name": "solc",
    "version": "0.8.3+commit.8d00100c.Emscripten.clang"
  },
  "schemaVersion": "3.3.4",
  "updatedAt": "2021-04-17T08:01:57.462Z",
  "networkType": "ethereum",
  "devdoc": {
    "events": {
      "NotifyStaked(address,uint256)": {
        "details": "trigger notification of staked amount",
        "params": {
          "amount": "msg.value for the transaction",
          "sender": "msg.sender for the transaction"
        }
      },
      "NotifyUnStaked(address,uint256)": {
        "details": "trigger notification of unstaked amount",
        "params": {
          "amount": "msg.value for the transaction",
          "sender": "msg.sender for the transaction"
        }
      }
    },
    "kind": "dev",
    "methods": {
      "Approvestake(uint256)": {
        "details": "stake funds to stakeContract"
      },
      "paused()": {
        "details": "Returns true if the contract is paused, and false otherwise."
      },
      "unstake()": {
        "details": "unstake funds from Pool"
      }
    },
    "stateVariables": {
      "DROI": {
        "details": "track Daily Rate of Investment "
      },
      "MROI": {
        "details": "track Monthly Rate of Investment "
      },
      "ROI": {
        "details": "track Annual Rate of Investment "
      },
      "claimable": {
        "details": "track claimable tokens "
      },
      "currentstakeyields": {
        "details": "track total current stake yields of a user "
      },
      "stakedShares": {
        "details": "track StakedShares of user "
      },
      "totalStakedMcH": {
        "details": "track total staked amount of tokens of all users "
      },
      "totalStakedamount": {
        "details": "track total staked value of all users "
      },
      "userIndex": {
        "details": "track index by address added to users "
      },
      "users": {
        "details": "track users users must be tracked in this array because mapping is not iterable "
      },
      "vested": {
        "details": "track vested tokens "
      }
    },
    "version": 1
  },
  "userdoc": {
    "kind": "user",
    "methods": {},
    "version": 1
  }
}