{
  "contractName": "Stakingpool",
  "abi": [
    {
      "inputs": [
        {
          "internalType": "contract MCHToken",
          "name": "_mchtoken",
          "type": "address"
        },
        {
          "internalType": "contract MCFToken",
          "name": "_mcftoken",
          "type": "address"
        }
      ],
      "stateMutability": "nonpayable",
      "type": "constructor"
    },
    {
      "anonymous": false,
      "inputs": [
        {
          "indexed": false,
          "internalType": "address",
          "name": "sender",
          "type": "address"
        },
        {
          "indexed": false,
          "internalType": "uint256",
          "name": "amount",
          "type": "uint256"
        }
      ],
      "name": "NotifyStaked",
      "type": "event"
    },
    {
      "anonymous": false,
      "inputs": [
        {
          "indexed": false,
          "internalType": "address",
          "name": "sender",
          "type": "address"
        },
        {
          "indexed": false,
          "internalType": "uint256",
          "name": "amount",
          "type": "uint256"
        }
      ],
      "name": "NotifyUnStaked",
      "type": "event"
    },
    {
      "anonymous": false,
      "inputs": [
        {
          "indexed": false,
          "internalType": "address",
          "name": "sender",
          "type": "address"
        },
        {
          "indexed": false,
          "internalType": "uint256",
          "name": "Balance",
          "type": "uint256"
        }
      ],
      "name": "Notifyclaimed",
      "type": "event"
    },
    {
      "anonymous": false,
      "inputs": [
        {
          "indexed": false,
          "internalType": "address",
          "name": "account",
          "type": "address"
        }
      ],
      "name": "Paused",
      "type": "event"
    },
    {
      "anonymous": false,
      "inputs": [
        {
          "indexed": false,
          "internalType": "address",
          "name": "account",
          "type": "address"
        }
      ],
      "name": "Unpaused",
      "type": "event"
    },
    {
      "inputs": [
        {
          "internalType": "address",
          "name": "",
          "type": "address"
        }
      ],
      "name": "ApproveStake",
      "outputs": [
        {
          "internalType": "uint256",
          "name": "",
          "type": "uint256"
        }
      ],
      "stateMutability": "view",
      "type": "function",
      "constant": true
    },
    {
      "inputs": [
        {
          "internalType": "address",
          "name": "",
          "type": "address"
        }
      ],
      "name": "DROI",
      "outputs": [
        {
          "internalType": "uint256",
          "name": "",
          "type": "uint256"
        }
      ],
      "stateMutability": "view",
      "type": "function",
      "constant": true
    },
    {
      "inputs": [
        {
          "internalType": "address",
          "name": "",
          "type": "address"
        }
      ],
      "name": "MROI",
      "outputs": [
        {
          "internalType": "uint256",
          "name": "",
          "type": "uint256"
        }
      ],
      "stateMutability": "view",
      "type": "function",
      "constant": true
    },
    {
      "inputs": [
        {
          "internalType": "address",
          "name": "",
          "type": "address"
        }
      ],
      "name": "ROI",
      "outputs": [
        {
          "internalType": "uint256",
          "name": "",
          "type": "uint256"
        }
      ],
      "stateMutability": "view",
      "type": "function",
      "constant": true
    },
    {
      "inputs": [],
      "name": "StakePeriod",
      "outputs": [
        {
          "internalType": "uint256",
          "name": "",
          "type": "uint256"
        }
      ],
      "stateMutability": "view",
      "type": "function",
      "constant": true
    },
    {
      "inputs": [
        {
          "internalType": "address",
          "name": "",
          "type": "address"
        }
      ],
      "name": "claimable",
      "outputs": [
        {
          "internalType": "uint256",
          "name": "",
          "type": "uint256"
        }
      ],
      "stateMutability": "view",
      "type": "function",
      "constant": true
    },
    {
      "inputs": [
        {
          "internalType": "address",
          "name": "",
          "type": "address"
        }
      ],
      "name": "currentstakeyields",
      "outputs": [
        {
          "internalType": "uint256",
          "name": "",
          "type": "uint256"
        }
      ],
      "stateMutability": "view",
      "type": "function",
      "constant": true
    },
    {
      "inputs": [],
      "name": "mcftoken",
      "outputs": [
        {
          "internalType": "contract MCFToken",
          "name": "",
          "type": "address"
        }
      ],
      "stateMutability": "view",
      "type": "function",
      "constant": true
    },
    {
      "inputs": [],
      "name": "mchtoken",
      "outputs": [
        {
          "internalType": "contract MCHToken",
          "name": "",
          "type": "address"
        }
      ],
      "stateMutability": "view",
      "type": "function",
      "constant": true
    },
    {
      "inputs": [],
      "name": "paused",
      "outputs": [
        {
          "internalType": "bool",
          "name": "",
          "type": "bool"
        }
      ],
      "stateMutability": "view",
      "type": "function",
      "constant": true
    },
    {
      "inputs": [
        {
          "internalType": "address",
          "name": "",
          "type": "address"
        }
      ],
      "name": "stakedBalances",
      "outputs": [
        {
          "internalType": "uint256",
          "name": "",
          "type": "uint256"
        }
      ],
      "stateMutability": "view",
      "type": "function",
      "constant": true
    },
    {
      "inputs": [
        {
          "internalType": "address",
          "name": "",
          "type": "address"
        }
      ],
      "name": "stakedShares",
      "outputs": [
        {
          "internalType": "uint256",
          "name": "",
          "type": "uint256"
        }
      ],
      "stateMutability": "view",
      "type": "function",
      "constant": true
    },
    {
      "inputs": [],
      "name": "totalStakedMcH",
      "outputs": [
        {
          "internalType": "uint256",
          "name": "",
          "type": "uint256"
        }
      ],
      "stateMutability": "view",
      "type": "function",
      "constant": true
    },
    {
      "inputs": [],
      "name": "totalStakedamount",
      "outputs": [
        {
          "internalType": "uint256",
          "name": "",
          "type": "uint256"
        }
      ],
      "stateMutability": "view",
      "type": "function",
      "constant": true
    },
    {
      "inputs": [
        {
          "internalType": "uint256",
          "name": "",
          "type": "uint256"
        }
      ],
      "name": "users",
      "outputs": [
        {
          "internalType": "address",
          "name": "",
          "type": "address"
        }
      ],
      "stateMutability": "view",
      "type": "function",
      "constant": true
    },
    {
      "inputs": [
        {
          "internalType": "address",
          "name": "",
          "type": "address"
        }
      ],
      "name": "vested",
      "outputs": [
        {
          "internalType": "uint256",
          "name": "",
          "type": "uint256"
        }
      ],
      "stateMutability": "view",
      "type": "function",
      "constant": true
    },
    {
      "inputs": [
        {
          "internalType": "uint256",
          "name": "amount",
          "type": "uint256"
        }
      ],
      "name": "Approvestake",
      "outputs": [],
      "stateMutability": "nonpayable",
      "type": "function"
    },
    {
      "inputs": [
        {
          "internalType": "uint256",
          "name": "amount",
          "type": "uint256"
        }
      ],
      "name": "unstake",
      "outputs": [],
      "stateMutability": "nonpayable",
      "type": "function"
    },
    {
      "inputs": [],
      "name": "distributeRewards",
      "outputs": [],
      "stateMutability": "nonpayable",
      "type": "function"
    },
    {
      "inputs": [],
      "name": "Harvest",
      "outputs": [],
      "stateMutability": "nonpayable",
      "type": "function"
    },
    {
      "inputs": [],
      "name": "calcROI",
      "outputs": [],
      "stateMutability": "nonpayable",
      "type": "function"
    }
  ],
  "bytecode": "0x60806040523480156200001157600080fd5b5060405162001e3d38038062001e3d833981810160405281019062000037919062000161565b60008060006101000a81548160ff02191690831515021790555033600060016101000a81548173ffffffffffffffffffffffffffffffffffffffff021916908373ffffffffffffffffffffffffffffffffffffffff16021790555081600160006101000a81548173ffffffffffffffffffffffffffffffffffffffff021916908373ffffffffffffffffffffffffffffffffffffffff16021790555080600260006101000a81548173ffffffffffffffffffffffffffffffffffffffff021916908373ffffffffffffffffffffffffffffffffffffffff1602179055506213c68042620001259190620001a2565b6003819055505050620002c8565b600081519050620001448162000294565b92915050565b6000815190506200015b81620002ae565b92915050565b600080604083850312156200017557600080fd5b600062000185858286016200014a565b9250506020620001988582860162000133565b9150509250929050565b6000620001af826200025b565b9150620001bc836200025b565b9250827fffffffffffffffffffffffffffffffffffffffffffffffffffffffffffffffff03821115620001f457620001f362000265565b5b828201905092915050565b60006200020c826200023b565b9050919050565b60006200022082620001ff565b9050919050565b60006200023482620001ff565b9050919050565b600073ffffffffffffffffffffffffffffffffffffffff82169050919050565b6000819050919050565b7f4e487b7100000000000000000000000000000000000000000000000000000000600052601160045260246000fd5b6200029f8162000213565b8114620002ab57600080fd5b50565b620002b98162000227565b8114620002c557600080fd5b50565b611b6580620002d86000396000f3fe608060405234801561001057600080fd5b50600436106101375760003560e01c806352a342a4116100b8578063789982c01161007c578063789982c01461034e57806380ededfa1461036c578063a2c2dbf01461038a578063cc862ef5146103a8578063ce4483f9146103c6578063e893a8a1146103f657610137565b806352a342a4146102a85780635c975abb146102c657806367719223146102e45780636f4a2cd0146103145780637102b7281461031e57610137565b80632e17de78116100ff5780632e17de78146101f25780633210407c1461020e578063365b98b21461023e5780633d64e17a1461026e578063402914f51461027857610137565b8063091b63c11461013c5780630eb0c8f31461015857806313677f94146101885780631460fa87146101b857806319d7c76e146101e8575b600080fd5b610156600480360381019061015191906115e8565b610426565b005b610172600480360381019061016d9190611596565b610631565b60405161017f919061181a565b60405180910390f35b6101a2600480360381019061019d9190611596565b610649565b6040516101af919061181a565b60405180910390f35b6101d260048036038101906101cd9190611596565b610661565b6040516101df919061181a565b60405180910390f35b6101f0610679565b005b61020c600480360381019061020791906115e8565b6108e1565b005b61022860048036038101906102239190611596565b610b05565b604051610235919061181a565b60405180910390f35b610258600480360381019061025391906115e8565b610b1d565b60405161026591906116ee565b60405180910390f35b610276610b5c565b005b610292600480360381019061028d9190611596565b610d14565b60405161029f919061181a565b60405180910390f35b6102b0610d2c565b6040516102bd919061181a565b60405180910390f35b6102ce610d32565b6040516102db9190611769565b60405180910390f35b6102fe60048036038101906102f99190611596565b610d48565b60405161030b919061181a565b60405180910390f35b61031c610d60565b005b61033860048036038101906103339190611596565b61118c565b604051610345919061181a565b60405180910390f35b6103566111a4565b604051610363919061181a565b60405180910390f35b6103746111aa565b604051610381919061181a565b60405180910390f35b6103926111b0565b60405161039f9190611784565b60405180910390f35b6103b06111d6565b6040516103bd919061179f565b60405180910390f35b6103e060048036038101906103db9190611596565b6111fc565b6040516103ed919061181a565b60405180910390f35b610410600480360381019061040b9190611596565b611214565b60405161041d919061181a565b60405180910390f35b600354421061043457600080fd5b6000811161044157600080fd5b600160009054906101000a900473ffffffffffffffffffffffffffffffffffffffff1673ffffffffffffffffffffffffffffffffffffffff166323b872dd3330846040518463ffffffff1660e01b81526004016104a093929190611709565b602060405180830381600087803b1580156104ba57600080fd5b505af11580156104ce573d6000803e3d6000fd5b505050506040513d601f19601f820116820180604052508101906104f291906115bf565b506000600560003373ffffffffffffffffffffffffffffffffffffffff1673ffffffffffffffffffffffffffffffffffffffff168152602001908152602001600020541415610545576105443361122c565b5b61059781600560003373ffffffffffffffffffffffffffffffffffffffff1673ffffffffffffffffffffffffffffffffffffffff168152602001908152602001600020546112fc90919063ffffffff16565b600560003373ffffffffffffffffffffffffffffffffffffffff1673ffffffffffffffffffffffffffffffffffffffff168152602001908152602001600020819055506105ef816007546112fc90919063ffffffff16565b6007819055507fc56736dcf0d4f5e82a639a9147b6843027755e445f6c6379e64fafaf677fc95f3382604051610626929190611740565b60405180910390a150565b60066020528060005260406000206000915090505481565b600b6020528060005260406000206000915090505481565b60056020528060005260406000206000915090505481565b60005b600f805490508110156108de576000600f82815481106106c5577f4e487b7100000000000000000000000000000000000000000000000000000000600052603260045260246000fd5b9060005260206000200160009054906101000a900473ffffffffffffffffffffffffffffffffffffffff169050610759606461074b600754600460008673ffffffffffffffffffffffffffffffffffffffff1673ffffffffffffffffffffffffffffffffffffffff1681526020019081526020016000205461131290919063ffffffff16565b61132890919063ffffffff16565b600b60008373ffffffffffffffffffffffffffffffffffffffff1673ffffffffffffffffffffffffffffffffffffffff168152602001908152602001600020819055506107ef600c600b60008473ffffffffffffffffffffffffffffffffffffffff1673ffffffffffffffffffffffffffffffffffffffff1681526020019081526020016000205461131290919063ffffffff16565b600a60008373ffffffffffffffffffffffffffffffffffffffff1673ffffffffffffffffffffffffffffffffffffffff1681526020019081526020016000208190555061088661016d600b60008473ffffffffffffffffffffffffffffffffffffffff1673ffffffffffffffffffffffffffffffffffffffff1681526020019081526020016000205461131290919063ffffffff16565b600960008373ffffffffffffffffffffffffffffffffffffffff1673ffffffffffffffffffffffffffffffffffffffff16815260200190815260200160002081905550506001816108d79190611846565b905061067c565b50565b6000600560003373ffffffffffffffffffffffffffffffffffffffff1673ffffffffffffffffffffffffffffffffffffffff16815260200190815260200160002054905060008111610968576040517f08c379a000000000000000000000000000000000000000000000000000000000815260040161095f906117fa565b60405180910390fd5b600260009054906101000a900473ffffffffffffffffffffffffffffffffffffffff1673ffffffffffffffffffffffffffffffffffffffff1663a9059cbb33836040518363ffffffff1660e01b81526004016109c5929190611740565b602060405180830381600087803b1580156109df57600080fd5b505af11580156109f3573d6000803e3d6000fd5b505050506040513d601f19601f82011682018060405250810190610a1791906115bf565b50610a6a81600560003373ffffffffffffffffffffffffffffffffffffffff1673ffffffffffffffffffffffffffffffffffffffff1681526020019081526020016000205461133e90919063ffffffff16565b600560003373ffffffffffffffffffffffffffffffffffffffff1673ffffffffffffffffffffffffffffffffffffffff16815260200190815260200160002081905550610ac28160075461133e90919063ffffffff16565b6007819055507ff0e91367580c56e4492696972a791ee0ea6c1b7cd991e98fb05acd88c438554f3382604051610af9929190611740565b60405180910390a15050565b600e6020528060005260406000206000915090505481565b600f8181548110610b2d57600080fd5b906000526020600020016000915054906101000a900473ffffffffffffffffffffffffffffffffffffffff1681565b6000600c60003373ffffffffffffffffffffffffffffffffffffffff1673ffffffffffffffffffffffffffffffffffffffff16815260200190815260200160002054905060008111610be3576040517f08c379a0000000000000000000000000000000000000000000000000000000008152600401610bda906117da565b60405180910390fd5b600260009054906101000a900473ffffffffffffffffffffffffffffffffffffffff1673ffffffffffffffffffffffffffffffffffffffff1663a9059cbb33836040518363ffffffff1660e01b8152600401610c40929190611740565b602060405180830381600087803b158015610c5a57600080fd5b505af1158015610c6e573d6000803e3d6000fd5b505050506040513d601f19601f82011682018060405250810190610c9291906115bf565b506000600c60003373ffffffffffffffffffffffffffffffffffffffff1673ffffffffffffffffffffffffffffffffffffffff168152602001908152602001600020819055507fa3c231ff0a3f5311deb1bc60b33827c06f9c4f088c392e494bd71545f5e746643382604051610d09929190611740565b60405180910390a150565b600c6020528060005260406000206000915090505481565b60085481565b60008060009054906101000a900460ff16905090565b60046020528060005260406000206000915090505481565b600060019054906101000a900473ffffffffffffffffffffffffffffffffffffffff1673ffffffffffffffffffffffffffffffffffffffff163373ffffffffffffffffffffffffffffffffffffffff1614610df0576040517f08c379a0000000000000000000000000000000000000000000000000000000008152600401610de7906117ba565b60405180910390fd5b600354421015610dff57600080fd5b60005b600f80549050811015611189576000600f8281548110610e4b577f4e487b7100000000000000000000000000000000000000000000000000000000600052603260045260246000fd5b9060005260206000200160009054906101000a900473ffffffffffffffffffffffffffffffffffffffff1690506000610e8382611354565b9050610ed781600460008573ffffffffffffffffffffffffffffffffffffffff1673ffffffffffffffffffffffffffffffffffffffff168152602001908152602001600020546112fc90919063ffffffff16565b600460008473ffffffffffffffffffffffffffffffffffffffff1673ffffffffffffffffffffffffffffffffffffffff16815260200190815260200160002081905550610f6d6002600460008573ffffffffffffffffffffffffffffffffffffffff1673ffffffffffffffffffffffffffffffffffffffff1681526020019081526020016000205461131290919063ffffffff16565b600d60008473ffffffffffffffffffffffffffffffffffffffff1673ffffffffffffffffffffffffffffffffffffffff16815260200190815260200160002081905550611041600d60008473ffffffffffffffffffffffffffffffffffffffff1673ffffffffffffffffffffffffffffffffffffffff16815260200190815260200160002054600460008573ffffffffffffffffffffffffffffffffffffffff1673ffffffffffffffffffffffffffffffffffffffff1681526020019081526020016000205461133e90919063ffffffff16565b600c60008473ffffffffffffffffffffffffffffffffffffffff1673ffffffffffffffffffffffffffffffffffffffff16815260200190815260200160002081905550600260009054906101000a900473ffffffffffffffffffffffffffffffffffffffff1673ffffffffffffffffffffffffffffffffffffffff1663a9059cbb83600c60008673ffffffffffffffffffffffffffffffffffffffff1673ffffffffffffffffffffffffffffffffffffffff168152602001908152602001600020546040518363ffffffff1660e01b8152600401611120929190611740565b602060405180830381600087803b15801561113a57600080fd5b505af115801561114e573d6000803e3d6000fd5b505050506040513d601f19601f8201168201806040525081019061117291906115bf565b5050506001816111829190611846565b9050610e02565b50565b600d6020528060005260406000206000915090505481565b60075481565b60035481565b600260009054906101000a900473ffffffffffffffffffffffffffffffffffffffff1681565b600160009054906101000a900473ffffffffffffffffffffffffffffffffffffffff1681565b600a6020528060005260406000206000915090505481565b60096020528060005260406000206000915090505481565b600060019054906101000a900473ffffffffffffffffffffffffffffffffffffffff1673ffffffffffffffffffffffffffffffffffffffff168173ffffffffffffffffffffffffffffffffffffffff161415611287576112f9565b6112908161146c565b6112f857600f819080600181540180825580915050600190039060005260206000200160009091909190916101000a81548173ffffffffffffffffffffffffffffffffffffffff021916908373ffffffffffffffffffffffffffffffffffffffff1602179055505b5b50565b6000818361130a9190611846565b905092915050565b60008183611320919061189c565b905092915050565b6000818361133691906118cd565b905092915050565b6000818361134c9190611927565b905092915050565b600080600260009054906101000a900473ffffffffffffffffffffffffffffffffffffffff1673ffffffffffffffffffffffffffffffffffffffff166318160ddd6040518163ffffffff1660e01b815260040160206040518083038186803b1580156113bf57600080fd5b505afa1580156113d3573d6000803e3d6000fd5b505050506040513d601f19601f820116820180604052508101906113f79190611611565b90506000611460606461145284600660008973ffffffffffffffffffffffffffffffffffffffff1673ffffffffffffffffffffffffffffffffffffffff1681526020019081526020016000205461132890919063ffffffff16565b61131290919063ffffffff16565b90508092505050919050565b600080600090505b600f8054905081101561153757600f81815481106114bb577f4e487b7100000000000000000000000000000000000000000000000000000000600052603260045260246000fd5b9060005260206000200160009054906101000a900473ffffffffffffffffffffffffffffffffffffffff1673ffffffffffffffffffffffffffffffffffffffff168373ffffffffffffffffffffffffffffffffffffffff16141561152357600191505061153d565b6001816115309190611846565b9050611474565b50600090505b919050565b60008135905061155181611aea565b92915050565b60008151905061156681611b01565b92915050565b60008135905061157b81611b18565b92915050565b60008151905061159081611b18565b92915050565b6000602082840312156115a857600080fd5b60006115b684828501611542565b91505092915050565b6000602082840312156115d157600080fd5b60006115df84828501611557565b91505092915050565b6000602082840312156115fa57600080fd5b60006116088482850161156c565b91505092915050565b60006020828403121561162357600080fd5b600061163184828501611581565b91505092915050565b6116438161195b565b82525050565b6116528161196d565b82525050565b611661816119a3565b82525050565b611670816119c7565b82525050565b6000611683602283611835565b915061168e82611a49565b604082019050919050565b60006116a6601383611835565b91506116b182611a98565b602082019050919050565b60006116c9601b83611835565b91506116d482611ac1565b602082019050919050565b6116e881611999565b82525050565b6000602082019050611703600083018461163a565b92915050565b600060608201905061171e600083018661163a565b61172b602083018561163a565b61173860408301846116df565b949350505050565b6000604082019050611755600083018561163a565b61176260208301846116df565b9392505050565b600060208201905061177e6000830184611649565b92915050565b60006020820190506117996000830184611658565b92915050565b60006020820190506117b46000830184611667565b92915050565b600060208201905081810360008301526117d381611676565b9050919050565b600060208201905081810360008301526117f381611699565b9050919050565b60006020820190508181036000830152611813816116bc565b9050919050565b600060208201905061182f60008301846116df565b92915050565b600082825260208201905092915050565b600061185182611999565b915061185c83611999565b9250827fffffffffffffffffffffffffffffffffffffffffffffffffffffffffffffffff03821115611891576118906119eb565b5b828201905092915050565b60006118a782611999565b91506118b283611999565b9250826118c2576118c1611a1a565b5b828204905092915050565b60006118d882611999565b91506118e383611999565b9250817fffffffffffffffffffffffffffffffffffffffffffffffffffffffffffffffff048311821515161561191c5761191b6119eb565b5b828202905092915050565b600061193282611999565b915061193d83611999565b9250828210156119505761194f6119eb565b5b828203905092915050565b600061196682611979565b9050919050565b60008115159050919050565b600073ffffffffffffffffffffffffffffffffffffffff82169050919050565b6000819050919050565b60006119ae826119b5565b9050919050565b60006119c082611979565b9050919050565b60006119d2826119d9565b9050919050565b60006119e482611979565b9050919050565b7f4e487b7100000000000000000000000000000000000000000000000000000000600052601160045260246000fd5b7f4e487b7100000000000000000000000000000000000000000000000000000000600052601260045260246000fd5b7f4f6e6c79206f776e65722063616e2063616c6c20746869732066756e6374696f60008201527f6e2e000000000000000000000000000000000000000000000000000000000000602082015250565b7f62616c616e63652063616e6e6f74206265203000000000000000000000000000600082015250565b7f7374616b696e672062616c616e63652063616e6e6f7420626520300000000000600082015250565b611af38161195b565b8114611afe57600080fd5b50565b611b0a8161196d565b8114611b1557600080fd5b50565b611b2181611999565b8114611b2c57600080fd5b5056fea2646970667358221220600b7ebcf3d6f9b21a0d2ec198e111f1343b3982851adeef60f82fa60a404b9764736f6c63430008030033",
  "immutableReferences": {},
  "source": "// SPDX-License-Identifier: GPL-3.0\n\npragma solidity ^0.8.0;\n\nimport \"@openzeppelin/contracts/utils/math/SafeMath.sol\";\nimport \"@openzeppelin/contracts/security/Pausable.sol\";\nimport \"@openzeppelin/contracts/token/ERC20/ERC20.sol\";\nimport {MCHToken} from \"./MCHToken.sol\";\nimport {MCFToken} from\"./MCFToken.sol\";\n\n\n\n/* @title Staking Pool Contract\n * Open Zeppelin Pausable is Ownable.  contains address owner */\n\ncontract Stakingpool is Pausable {\n  \n  using SafeMath for uint;\n  address private owner;\n  \n  \n  MCHToken public mchtoken;\n  MCFToken public mcftoken;\n  uint public StakePeriod;\n  \n  modifier onlyOwner {\n        require(\n            msg.sender == owner,\n            \"Only owner can call this function.\"\n        );\n        _;\n    }\n  \n /** @dev track total current stake yields of a user */\n   mapping(address => uint) public currentstakeyields;\n   \n   /** @dev track Stakedbalances of user*/\n  mapping(address => uint) public stakedBalances;\n  \n  /** @dev track StakedShares of user */\n  mapping(address => uint) public stakedShares;\n  \n  /** @dev track total staked amount of tokens of all users */\n  uint public totalStakedMcH;\n  \n  /** @dev track total staked value of all users */\n  uint public totalStakedamount;\n  \n /** @dev track Daily Rate of Investment */\n mapping(address => uint) public DROI;\n  \n /** @dev track Monthly Rate of Investment */\n  mapping(address => uint) public MROI;\n  \n /** @dev track Annual Rate of Investment */ \n  mapping(address => uint) public ROI;\n  \n  /** @dev track claimable tokens */ \n  mapping(address => uint) public claimable;\n  \n  /** @dev track vested tokens */  \n  mapping(address => uint) public vested;\n  \n  /** @dev track user request to enter stakingPeriod */\n  mapping(address => uint) public ApproveStake;\n  \n /** @dev track users\n    * users must be tracked in this array because mapping is not iterable */\n  address[] public users;\n  \n   /** @dev track index by address added to users */\n  mapping(address => uint) private userIndex;\n\n  uint NoUsers;\n  \n \n /** @dev trigger notification of staked amount\n    * @param sender       msg.sender for the transaction\n    * @param amount       msg.value for the transaction\n    */\n  event NotifyStaked(address sender, uint amount);\n  \n  /** @dev trigger notification of unstaked amount\n    * @param sender       msg.sender for the transaction\n    * @param amount       msg.value for the transaction\n    */\n  event NotifyUnStaked(address sender, uint amount);\n\n\n  // @dev trigger notification of claimed amount\n  event Notifyclaimed(address sender,uint Balance);\n\n\n  // @dev contract constructor\n    \n constructor(MCHToken _mchtoken, MCFToken _mcftoken)  {\n    \n    owner = msg.sender;\n    mchtoken = _mchtoken;\n    mcftoken = _mcftoken;\n    StakePeriod = block.timestamp + 15 days;\n    \n  }\n\n  \n  /************************ USER MANAGEMENT **********************************/\n\n  /** @dev test if user is in current user list\n    * @param _user address of user to test if in list\n    * @return true if user is on record, otherwise false\n    */\n  function isExistingUser(address _user) internal view returns (bool) {\n    \n      for(uint256 i=0;i<users.length;i+=1) {\n          if(_user ==users[i]) return(true);\n      }\n      \n    return (false);\n  }\n  /** @dev remove a user from users array\n    * @param _user address of user to remove from the list\n    */\n  function removeUser(address _user) internal {\n    if (_user == owner ) return;\n    uint index = userIndex[_user];\n    // user is not last user\n    if (index < users.length.sub(1)) {\n      address lastUser = users[users.length.sub(1)];\n      users[index] = lastUser;\n      userIndex[lastUser] = index;\n    }\n    // this line removes last user\n    users.length.sub(1);\n  }\n\n  /** @dev add a user to users array\n    * @param _user address of user to add to the list\n    */\n   function addUser(address _user) internal {\n    if (_user == owner ) return;\n    if (!isExistingUser(_user)) users.push(_user);\n   }\n  /************************ USER MANAGEMENT **********************************/\n\n  \n   \n  /** @dev stake funds to stakeContract\n    */\n  function Approvestake(uint amount) external {\n      require(block.timestamp < StakePeriod );\n      require(amount > 0);\n      \n     // Transfer Mock  tokens to this contract for staking\n     mchtoken.transferFrom(msg.sender, address(this), amount);\n    \n    if(stakedBalances[msg.sender] == 0) addUser(msg.sender);\n       stakedBalances[msg.sender] = stakedBalances[msg.sender].add(amount);\n       \n    // track total staked\n    totalStakedMcH = totalStakedMcH.add(amount);\n\n    emit NotifyStaked(msg.sender, amount);\n  }\n\n\n  /** @dev unstake funds from Pool\n    */\n  function unstake(uint amount) external  {\n    \n    // Fetch staking balance\n    uint amount = stakedBalances[msg.sender];\n    \n    require(amount > 0, \"staking balance cannot be 0\");\n\n    // Transfer Mocktokens \n    mcftoken.transfer(msg.sender, amount);\n\n    // Reset staking balance\n    stakedBalances[msg.sender] = stakedBalances[msg.sender].sub(amount);\n    \n    // track total staked\n    totalStakedMcH = totalStakedMcH.sub(amount);\n\n    emit NotifyUnStaked(msg.sender, amount);\n  \n   }\n\n  \n  function calcShares(address user) internal returns(uint) {\n     \n     uint shares = (stakedBalances[user].div(totalStakedMcH)).mul(100);\n     stakedShares[user] = stakedShares[user].add(shares);\n     return shares;\n  }\n  \n  function calcRewards(address user) internal view returns (uint) {\n      \n      uint mcftokensEmitted = mcftoken.totalSupply();\n      uint rewards = (stakedShares[user].mul(mcftokensEmitted)).div(100);\n      return rewards;\n  }\n  \n   function distributeRewards() public onlyOwner {\n        \n       require(block.timestamp >= StakePeriod );\n       for (uint256 i = 0; i < users.length; i += 1) {\n           address user = users[i];\n           uint256 reward = calcRewards(user);\n           currentstakeyields[user] = currentstakeyields[user].add(reward);\n           vested[user] = currentstakeyields[user].div(2);\n           claimable[user]=currentstakeyields[user].sub(vested[user]);\n           mcftoken.transfer(user,claimable[user]);\n       }\n   }\n\n    function Harvest() public  {\n        \n        uint256 Balance = claimable[msg.sender];\n       // Require amount greater than 0\n        require(Balance > 0, \"balance cannot be 0\");\n        mcftoken.transfer(msg.sender, Balance);\n       // payable(msg.sender).transfer(balance);\n        claimable[msg.sender] = 0;\n\n      emit Notifyclaimed(msg.sender,Balance);\n    \n    }\n  \n  function calcROI() public {\n     \n      for (uint256 i = 0; i < users.length; i += 1) {\n        address user = users[i];\n        ROI[user] =  (currentstakeyields[user].div(totalStakedMcH)).mul(100);\n        MROI[user] = (ROI[user]).div(12);\n        DROI[user] = (ROI[user]).div(365);\n       }\n    }\n\n}\n",
  "sourcePath": "G:/PROJECTS/stakingpool/stakingpool/contracts/Stakingpool.sol",
  "compiler": {
    "name": "solc",
    "version": "0.8.3+commit.8d00100c.Emscripten.clang"
  },
  "schemaVersion": "3.3.4",
  "updatedAt": "2021-04-14T07:53:22.986Z",
  "networkType": "ethereum",
  "devdoc": {
    "events": {
      "NotifyStaked(address,uint256)": {
        "details": "trigger notification of staked amount",
        "params": {
          "amount": "msg.value for the transaction",
          "sender": "msg.sender for the transaction"
        }
      },
      "NotifyUnStaked(address,uint256)": {
        "details": "trigger notification of unstaked amount",
        "params": {
          "amount": "msg.value for the transaction",
          "sender": "msg.sender for the transaction"
        }
      }
    },
    "kind": "dev",
    "methods": {
      "Approvestake(uint256)": {
        "details": "stake funds to stakeContract"
      },
      "paused()": {
        "details": "Returns true if the contract is paused, and false otherwise."
      },
      "unstake(uint256)": {
        "details": "unstake funds from Pool"
      }
    },
    "stateVariables": {
      "ApproveStake": {
        "details": "track user request to enter stakingPeriod "
      },
      "DROI": {
        "details": "track Daily Rate of Investment "
      },
      "MROI": {
        "details": "track Monthly Rate of Investment "
      },
      "ROI": {
        "details": "track Annual Rate of Investment "
      },
      "claimable": {
        "details": "track claimable tokens "
      },
      "currentstakeyields": {
        "details": "track total current stake yields of a user "
      },
      "stakedBalances": {
        "details": "track Stakedbalances of user"
      },
      "stakedShares": {
        "details": "track StakedShares of user "
      },
      "totalStakedMcH": {
        "details": "track total staked amount of tokens of all users "
      },
      "totalStakedamount": {
        "details": "track total staked value of all users "
      },
      "userIndex": {
        "details": "track index by address added to users "
      },
      "users": {
        "details": "track users users must be tracked in this array because mapping is not iterable "
      },
      "vested": {
        "details": "track vested tokens "
      }
    },
    "version": 1
  },
  "userdoc": {
    "kind": "user",
    "methods": {},
    "version": 1
  }
}